:020000040800F2
:1000000000000220C9020008CF020008D302000845
:1000100045030008490300089103000800000000A0
:10002000000000000000000000000000751400083F
:10003000DD030008000000007714000879140008B0
:10004000F5030008F5030008F5030008F5030008B0
:10005000F5030008F5030008F5030008F5030008A0
:10006000F5030008F5030008F5030008F503000890
:10007000F5030008F5030008F5030008F503000880
:10008000F5030008F5030008F50300080000000070
:10009000000000000000000000000000F503000860
:1000A000F5030008F5030008F5030008F503000850
:1000B000F5030008F5030008F5030008F503000840
:1000C000F5030008F5030008F5030008F503000830
:1000D000F5030008F5030008F50300080000000020
:1000E000F5030008F5030008F50300080000000010
:1000F000000000000000000000000000F503000800
:1001000000000000F5030008F5030008F5030008EF
:1001100000000000000000000000000000000000DF
:10012000F5030008F5030008F5030008F5030008CF
:10013000F5030008000000000000000000000000BF
:10014000000000000000000000000000F5030008AF
:10015000F5030008F5030008F5030008F50300089F
:10016000F5030008F503000800000000000000008F
:10017000000000000000000000000000000000007F
:1001800000000000F503000800000000000000006F
:10019000F5030008F503000800B583B000F0B6FFD2
:1001A000384B394A1360394A1360394906E01168FF
:1001B0001960043304329842F9D82146354B9942EC
:1001C00005D20A684B6801F10C048868F3E72E4BEE
:1001D0001A68314B9A4200D0FEE72C4B1A682F4B1D
:1001E0009A42F9D1274B2E4A13602E4A13602E4BA8
:1001F00005E00020106004329342FAD80B462B4AE7
:10020000934204D2194651F8082B5B68F4E7244B5B
:100210001B6813B9234B1B6803B1FEE701F00CF810
:10022000694601A800F00EFF214B224CE41AA410ED
:100230000025AC4214DC204B204CE41AA41000250D
:10024000AC4213DC0099019801F0A8F805461C4B5C
:100250001C4CE41AA410002C0EDC284600F0CEFE44
:10026000134B53F8253098470135E2E7124B53F80A
:10027000253098470135E3E7013C114B53F8243012
:100280009847E8E7BABADECA0000002074000020F0
:10029000F803000810040008785634123254769897
:1002A0007800002014010020100400082004000839
:1002B000200400082004000820040008200400088E
:1002C000200400082004000808B5FFF765FF00BE01
:1002D000FEE71EF0040F0CBFEFF30880EFF3098078
:1002E0007146414A10472DE9F04182B004468846E4
:1002F000124B5E6B9F6B9D6A1B6B13F0020F03D05A
:100300000E4BDB6A002B0CDB0D4800F0A3FECDF892
:1003100000803B4632462946204600F003FF00BEDF
:10032000FEE74BF6AB6100F077FF0028ECD04FF012
:100330000042024BDA6202B0BDE8F08100ED00E05D
:100340004820000800BEFEE71EF0040F0CBFEFF3CC
:100350000880EFF309807146244A10472DE9F041E7
:1003600082B004468846084B5E6B9F6B9D6A0748C7
:1003700000F070FECDF800803B463246294620460C
:1003800000F0D0FE00BEFEE700ED00E058200008BF
:100390001EF0040F0CBFEFF30880EFF309807146E5
:1003A000134A10472DE9F04182B004468846084BB5
:1003B0005E6B9F6B9D6A074800F04CFECDF8008095
:1003C0003B4632462946204600F0ACFE00BEFEE722
:1003D00000ED00E06420000800BEFEE700BEFEE77E
:1003E00000BEFEE770470000E70200085D0300085A
:0803F000A503000800BEFEE7B2
:1003F8004421000800000020780000204421000863
:1004080000000010000000107800002018010020F3
:080418000000001000000010BC
:1004200010B50446074B1868074BA3FB0030800942
:1004300000F096F8002221464FF0FF3000F04CF813
:10044000002010BD0C000020D34D621008B50B4BEE
:100450001A6842F400721A601A6842F480621A60E4
:100460001A6842F480721A60032000F017F8002026
:10047000FFF7D6FF00F0CFFF002008BD003C024090
:10048000024A136801331360704700BF0C0100205B
:10049000014B1868704700BF0C01002010B50446DE
:1004A000C31E042B0FD80A4AD36823F4E0631B044D
:1004B0001B0C240204F4E064234343F0BF6343F4C1
:1004C0000033D36010BDA421024800F0A3FFEAE787
:1004D00000ED00E0881E000870B505460C46164683
:1004E0000F2A24D80F2C27D81A4BDB68C3F302231A
:1004F000C3F10702042A28BF0422191D062920D9A6
:10050000033B012101FA02F2013A14409C4001FA36
:1005100003F3013B33401C43002D14DB2401E4B200
:1005200005F1604505F5614585F8004370BDBC21C6
:10053000094800F06FFFD5E7BD21074800F06AFFCA
:10054000D2E70023DDE705F00F052401E4B2034BF9
:100550005C5570BD00ED00E0881E000814ED00E061
:100560000138B0F1807F0AD2064B5860F021064A6C
:1005700082F823100020986007221A60704701203B
:10058000704700BF10E000E000ED00E010B5044649
:10059000042800D038B9042C0BD0094A136823F082
:1005A0000403136010BD40F2B311064800F032FF9F
:1005B000F1E7034A136843F00403136010BD00BF62
:1005C00010E000E0881E0008704708B5FFF7FCFF48
:1005D00008BD00002DE9F04782B080460F46A34BCE
:1005E000984217D003F58063984213D003F58063D7
:1005F00098420FD003F5806398420BD003F58063D7
:10060000984207D003F54063984203D0C52198482B
:1006100000F000FF3B8853B37B68012B22D9112BDC
:1006200020D0022B1ED0122B1CD0924A934219D0FC
:1006300002F58012934215D002F58012934211D038
:10064000A2F5F81293420DD002F58012934209D020
:1006500002F58012934205D0032B03D0C7218448B2
:1006600000F0D8FEBB68022B06D80025BEE0C621EC
:100670007F4800F0CFFECFE7C8217D4800F0CAFEDA
:10068000F3E73B69CBB1092B17D0012B15D0022B17
:1006900013D0042B11D0052B0FD0062B0DD0072B18
:1006A0000BD0082B09D00A2B07D00C2B05D00F2B11
:1006B00003D0D9216E4800F0ADFEEA08083258F8A0
:1006C000223005F0070189000F20884023EA00034B
:1006D000386900FA01F10B4348F8223096E0FB68D4
:1006E000032B00F2B080D8F808303340FA6802FAE1
:1006F0000AF21343C8F80830D8F8043023EA040497
:100700007B68C3F30013AB401C43C8F80440D8F81F
:100710000C301E40BB6803FA0AF31E43C8F80C6095
:100720007B6813F0805F60D000230193524B5A6CBA
:1007300042F480425A645B6C03F480430193019B52
:10074000AA08911C4D4B53F8213005F00301890094
:100750000F20884023EA0003444880457AD000F502
:100760008060804578D000F58060804576D000F5C7
:100770008060804574D000F58060804568D0052099
:1007800000FA01F10B4302323C4941F822303C4B64
:100790001A686FEA090302EA0301786810F4803FDF
:1007A00001D049EA0201364A1160526803EA0201A7
:1007B000786810F4003F01D049EA0201304A5160E4
:1007C000926803EA0201786810F4801F01D049EAB8
:1007D00002012B4A9160D2681340796811F4001F1E
:1007E00001D049EA0203264AD36001350F2D39D8DA
:1007F0000124AC403B6804EA03094C45F5D17B6811
:10080000022B3FF43EAF122B3FF43BAFD8F8003041
:100810004FEA450A032606FA0AF6F64333407A6899
:1008200002F0030202FA0AF21343C8F800307B68B0
:100830005A1E012A7FF653AF112B3FF450AF122BF3
:100840007FF465AF4BE7EC21094800F0E3FD4AE790
:10085000042095E7002093E7012091E702208FE72D
:1008600003208DE702B0BDE8F08700BF0000024022
:10087000BC1E000800001110003802400038014082
:10088000003C014038B505460C4621B12B691C429D
:1008900007D1002038BD4FF4C871034800F0BAFDFD
:1008A000F4E7012038BD00BFBC1E000870B5064645
:1008B00015460C4651B1012D04D94FF4D9710748A2
:1008C00000F0A8FD45B92404B46170BD40F2B11137
:1008D000024800F09FFDEEE7B46170BDBC1E000849
:1008E00030B583B0044603680F2B2DD8236813F06E
:1008F000010F3CD06368012B05D9052B03D0FA21E9
:100900009F4800F087FD9F4B9B6803F00C03042B6E
:1009100024D09C4B9B6803F00C03082B19D0227940
:10092000994B1A706368002B50D0FFF7B1FD054654
:10093000944B1B6813F4003F19D1FFF7A9FD401B2E
:100940006428F5D90320D6E1F5218D4800F062FD39
:10095000CCE78C4B5B6813F4800FE0D0894B1B68AD
:1009600013F4003F03D06368002B00F0C1812368BB
:1009700013F0020F5CD0E368012B04D94FF4967199
:100980007F4800F047FD23691F2B2ED87D4B9B68C5
:1009900013F00C0F34D07B4B9B6803F00C03082B37
:1009A00029D0E368002B72D00122784B1A60FFF740
:1009B0006FFD0546734B1B6813F0020F58D1FFF70C
:1009C00067FD401B0228F5D9032094E1FFF760FD85
:1009D00005466C4B1B6813F4003FC8D0FFF758FD69
:1009E000401B6428F5D9032085E140F22D116448AD
:1009F00000F010FDCAE7634B5B6813F4800FD0D1A1
:100A0000604B1B6813F0020F04D0E368012B01D088
:100A1000012070E15B48036823F0F8032169F822A4
:100A200092FAA2F2B2FA82F201FA02F213430360DE
:100A3000236813F0080F4ED06369012B04D940F2EC
:100A40006D114F4800F0E6FC636993B30122504BEF
:100A50001A60FFF71DFD05464A4B5B6F13F0020F4E
:100A600039D1FFF715FD401B0228F5D9032042E1DB
:100A70004448036823F0F8032169F82292FAA2F2AD
:100A8000B2FA82F201FA02F213430360D0E70022C5
:100A90003E4B1A60FFF7FCFC05463A4B1B6813F00F
:100AA000020FC5D0FFF7F4FC401B0228F5D9032044
:100AB00021E10022364B1A60FFF7EAFC0546314B74
:100AC0005B6F13F0020F06D0FFF7E2FC401B022819
:100AD000F5D903200FE1236813F0040F5ED0A3685B
:100AE000012B06D9052B04D040F29711244800F0C1
:100AF00091FC00230193234B1A6C42F080521A643C
:100B00001B6C03F080530193019B224A136843F44A
:100B100080731360FFF7BCFC05461E4B1B6813F483
:100B2000807F06D1FFF7B4FC401B0228F5D90320D3
:100B3000E1E0227A184B1A70A36883B1FFF7A8FC92
:100B40000546104B1B6F13F0020F27D1FFF7A0FCD7
:100B5000401B41F288339842F3D90320CBE0FFF7E2
:100B600097FC0546074B1B6F13F0020F16D0FFF7DB
:100B70008FFC401B41F288339842F3D90320BAE03E
:100B8000FC1E0008003802400238024000004742C4
:100B9000800E47420070004070380240A369022B6B
:100BA0001FD8A369002B00F0A580554A926802F077
:100BB0000C02082A00F0A180022B18D00022514B11
:100BC0001A60FFF765FC04464D4B1B6813F0007F6D
:100BD00000F08C80FFF75CFC001B0228F4D9032096
:100BE00089E04FF4E671484800F014FCD9E7E36966
:100BF0003BB1B3F5800F04D040F2D511424800F06C
:100C000009FC236A3F2B27D8636AC03BF02B29D805
:100C1000A36A022B0AD0042B08D0062B06D0082B7F
:100C200004D04FF4EC71384800F0F4FBE36A043B65
:100C30000B2B1DD80022334B1A60FFF729FC054609
:100C40002F4B1B6813F0007F18D0FFF721FC401BCF
:100C50000228F5D903204EE04FF4EB712A4800F04A
:100C6000D9FBD1E740F2D711274800F0D3FBCFE7FB
:100C700040F2D911244800F0CDFBDBE7E369226A9A
:100C80001343616A47F6C07292FAA2F2B2FA82F294
:100C900001FA02F21343A26A5208013A4FF44031BA
:100CA00091FAA1F1B1FA81F18A401343E16A4FF060
:100CB000706292FAA2F2B2FA82F201FA02F21343DD
:100CC0000F4A536001220F4B1A60FFF7E1FB044605
:100CD0000B4B1B6813F0007F06D1FFF7D9FB001BFD
:100CE0000228F5D9032006E0002004E0002002E0FD
:100CF000012000E0002003B030BD0120FBE700BF71
:100D00000038024060004742FC1E0008214B9B68EF
:100D100003F00C03042B3AD0082B01D01E48704777
:100D20001C4B586800F03F005B6813F4800F1ED026
:100D30001A4AB2FBF0F2174B586847F6C0731840D6
:100D400093FAA3F3B3FA83F3D84000FB02F0114BFC
:100D50005B6803F440334FF4403292FAA2F2B2FAE5
:100D600082F2D34001335B00B0FBF3F070470A4AD4
:100D7000B2FBF0F2074B586847F6C073184093FA7D
:100D8000A3F3B3FA83F3D84000FB02F0DFE7034894
:100D9000704700BF003802400024F40000127A00BF
:100DA00070B504460D460368013B0E2B11D8072D84
:100DB00015D88A4B1B6803F00F039D4215D9EBB27F
:100DC000864A1370136803F00F039D420DD0012073
:100DD00070BD40F23721824800F01CFBE7E74FF47A
:100DE0000E717F4800F016FBE3E7236813F0020F53
:100DF0001DD0A368A3B1802B12D0902B10D0A02BB4
:100E00000ED0B02B0CD0C02B0AD0D02B08D0E02BAA
:100E100006D0F02B04D040F24F21714800F0FAFACE
:100E2000704A936823F0F003A1680B439360236832
:100E300013F0010F6DD06368032B29D86368012B71
:100E40002CD09A1E012A30D9664A126812F0020F7D
:100E500000F0C28063498A6822F0030213438B606A
:100E6000FFF716FB06466368012B25D0022B32D014
:100E7000032B3FD05B4B9B6813F00C0F49D0FFF75F
:100E800007FB801B41F288339842F3D9032070BDE1
:100E900040F25621524800F0BDFACFE7514A12689D
:100EA00012F4003FD6D1012070BD4E4A126812F0F4
:100EB000007FCFD1012070BD4A4B9B6803F00C032B
:100EC000042B26D0FFF7E4FA801B41F288339842C6
:100ED000F2D9032070BD434B9B6803F00C03082B31
:100EE00017D0FFF7D5FA801B41F288339842F2D928
:100EF000032070BD3B4B9B6803F00C030C2B08D008
:100F0000FFF7C6FA801B41F288339842F2D90320DA
:100F100070BD324B1B6803F00F039D4209D2EAB249
:100F20002E4B1A701B6803F00F039D4201D0012065
:100F300070BD236813F0040F19D0E36883B1B3F5D3
:100F4000805F0DD0B3F5A05F0AD0B3F5C05F07D0C6
:100F5000B3F5E05F04D04FF42D71214800F05AFA48
:100F6000204A936823F4E053E1680B4393602368BD
:100F700013F0080F1AD0236983B1B3F5805F0DD049
:100F8000B3F5A05F0AD0B3F5C05F07D0B3F5E05F5B
:100F900004D040F2BB21124800F03CFA114A936899
:100FA00023F46043216943EAC1039360FFF7AEFE77
:100FB0000C4B9B6803F0F003F02292FAA2F2B2FA13
:100FC00082F2D340084AD35CD840084B1860002016
:100FD000FFF726FA002070BD012070BD003C0240E2
:100FE000FC1E000800380240EC1E00080C00002027
:100FF000014B1868704700BF0C000020FEE700009E
:1010000008B503460C4A12685AB10B4A10680333FC
:1010100023F003030344094A934206D8064A1360A7
:1010200008BD0749044A1160EFE700F09BFA0C2362
:1010300003604FF0FF3008BD7C00002000FC012061
:101040001801002001230360014B0B60704700BFB3
:10105000040000200FB400B583B004AB53F8042B98
:1010600001938021064800F0B7FA002803DD01460D
:10107000034800F047F803B05DF804EB04B0704794
:101080008400002010B5044600F072FA01462046A4
:1010900000F038F80121024800F034F810BD00BF1C
:1010A000C41F00082DE9F04385B004460F4643569F
:1010B0000BB10E461EE0042528462146ABBE044671
:1010C000384605B0BDE8F08314F9011B04AA1A44A0
:1010D00002F8101C0133AB42F6D304AA13440022D9
:1010E00003F8102CE9464FF0040840464946ABBED1
:1010F0008046761B002EE3D03546102E28BF1025E3
:101100000023E8E708B5FFF7CDFF08BD08B500F0FC
:10111000B9F9024B024A9A6008BD00BF00ED00E039
:1011200000000008F8B504460D4617461E4627483D
:10113000FFF790FF21682648FFF78CFF616825487C
:10114000FFF788FFA1682448FFF784FFE168234880
:10115000FFF780FF21692248FFF77CFF6169214882
:10116000FFF778FFA1692048FFF774FFE1691F4886
:10117000FFF770FF1E48FFF76DFF29461D48FFF778
:1011800069FF1D4CE16A1D48FFF764FF216B1C4895
:10119000FFF760FFE16B1B48FFF75CFF15F0800F66
:1011A0000AD115F4004F0CD11748FFF753FF0699E9
:1011B0001648FFF74FFFF8BD39461548FFF74AFFBD
:1011C000EFE731461348FFF745FFEDE72C1F000816
:1011D0003C1F00084C1F00085C1F00086C1F000823
:1011E0007C1F00088C1F00089C1F0008AC1F000813
:1011F000BC1F0008C81F000800ED00E0D81F000851
:10120000E81F0008F81F0008282000083020000808
:10121000082000081820000883691A888A4201D033
:10122000002070470268033A012A03D80233836121
:10123000012070470020704708B5FFF707F900F05C
:101240005FF800F03FF908BD30B58BB00024019481
:10125000274B1A6B42F004021A631A6B02F0040265
:101260000192019A02941A6B42F080021A631A6B7F
:1012700002F080020292029A03941A6B42F0010279
:101280001A631A6B02F001020392039A04941A6B18
:1012900042F002021A631B6B03F002030493049BE7
:1012A000144D224620212846FFF700FB4FF400533F
:1012B00005930694079405A90F48FFF78BF90C23B3
:1012C00005930223069307940323089307230993A6
:1012D00005A92846FFF77EF92023059301230693ED
:1012E0000794089405A92846FFF774F90BB030BDA0
:1012F000003802400000024000080240FEE7000003
:1013000000B595B000230193214A116C41F0805142
:101310001164126C02F080520192019A02931D4AEC
:10132000116841F440411160126802F44042029297
:10133000029A0122089209920E9308A8FFF7D0FAA8
:1013400008BB0F23039301230493002105914FF45D
:1013500080530693079103A8FFF722FDA8B9FFF772
:1013600047FE0D4BA3FB00308009FFF7F9F804207E
:10137000FFF70CF9002211464FF0FF30FFF7ACF8F1
:1013800015B05DF804FBFFF7B9FFFFF7B7FF00BF2B
:101390000038024000700040D34D621008B5154877
:1013A000FFF770FEFFF752F81348FFF76BFEFFF7E9
:1013B000A7FF1248FFF766FEFFF746FF1048FFF74A
:1013C00061FE07E00F48FFF75DFE002220210E4876
:1013D000FFF76CFA4FF400510C48FFF753FA00285E
:1013E000F0D10B48FFF74EFE012220210648FFF7FF
:1013F0005DFAEFE7742000088020000898200008BC
:10140000A8200008E0200008000002400008024078
:10141000C0200008704708B50720FFF73FF80022FA
:1014200011466FF00B00FFF757F8002211466FF0DE
:101430000A00FFF751F8002211466FF00900FFF78C
:101440004BF8002211466FF00400FFF745F8002228
:1014500011466FF00300FFF73FF8002211466FF0CE
:101460000100FFF739F8002211464FF0FF30FFF777
:1014700033F808BD7047704708B5FFF701F8FFF76C
:10148000A4F808BD0C4B1A6842F001021A60002152
:1014900099601A6822F0847222F480321A60074A36
:1014A0005A601A6822F480221A60D9604FF00062F4
:1014B000034B9A60704700BF003802401030002490
:1014C00000ED00E0224B9B6803F00C03042B14D0CA
:1014D000082B16D01BB11F4A1F4B1A6002E01D4A91
:1014E0001D4B1A601A4B9B68C3F303131B4AD15C54
:1014F000194A1368CB4013607047194A164B1A609B
:10150000F0E7134B5A685B6803F03F0312F4800F57
:1015100013D0134AB2FBF3F20D4B5B68C3F388138D
:1015200003FB02F30A4A5268C2F30142013252003D
:10153000B3FBF2F3084A1360D4E7064AB2FBF3F2B6
:10154000034B5B68C3F3881303FB02F3EAE700BFB6
:10155000003802400024F4000C00002000210008A4
:1015600000127A00014B1868704700BF100000207D
:10157000034613F8012B002AFBD1181A01387047D3
:1015800030B5141E05469BB0184605DA8B232B6038
:101590004FF0FF301BB030BD4FF40273ADF80C308C
:1015A00014BF04F1FF332346029305934FF6FF73F4
:1015B00000910491ADF80E3002461E9B6946284604
:1015C00000F074F8431CBCBF8B232B60002CE1D0CF
:1015D000009B00221A70DDE707B5009313460A4608
:1015E000014603480068FFF7CBFF03B05DF804FB3A
:1015F000100000202DE9F0478E689E4282460C467E
:101600009146984635D88A8912F4906F31D0256872
:1016100009696F1A6569022305EB450595FBF3F52A
:1016200008F101033B449D4238BF1D46530531D5A7
:10163000294600F089FB064650B90C23CAF8003051
:10164000A38943F04003A3814FF0FF30BDE8F0874A
:101650003A46216900F004FBA38923F4906343F028
:101660008003A381266165613E44ED1B2660A56071
:101670004646464528BF464632464946206800F061
:10168000FAFAA3689B1BA36023681E44266000200F
:10169000BDE8F0872A4600F0B5FB06460028E1D1F8
:1016A0002169504600F002FBC7E700002DE9F04F2A
:1016B0009DB0804603938B891C060D4616460FD5B8
:1016C0000B696BB9402100F03FFB2860286128B905
:1016D0000C23C8F800304FF0FF30C5E040236B61A9
:1016E0000023099320238DF8293030238DF82A30E8
:1016F0004FF0010B37463C4614F8013B002B3CD120
:10170000B7EB060A0BD05346324629464046FFF750
:1017100071FF013000F0A380099B534409933B788B
:10172000002B00F09C8000234FF0FF3204930793BE
:10173000059206938DF853301A930522217850486C
:1017400000F03EFA671C049BD8B9D90644BF20229A
:101750008DF853201A0744BF2B228DF8532022788E
:101760002A2A16D0079A00210A20274601343B78FE
:10177000303B092B51D9C9B111E0252BC0D02746E8
:10178000B9E73F4A801A0BFA00F0184304903C4630
:10179000D3E7039A111D12680391002A01DB079217
:1017A00004E0524243F00203079204933B782E2B4D
:1017B0000ED17B782A2B07F1010132D1039B1A1D30
:1017C0001B680392002BB8BF4FF0FF33023705931D
:1017D0002C4C39780322204600F0F2F938B140232E
:1017E000001B03FA00F0049B03430493013739788C
:1017F00025488DF8281006227E1C00F0E1F900280B
:1018000035D0224BFBB9039B073323F00703083382
:101810000393099B4B4409936CE700FB02320121BF
:10182000A3E70023059318460A240F4601313A78AE
:10183000303A092A03D9002BCAD00590C8E704FB27
:1018400000200123F1E703AB00932A46104B04A9C3
:101850004046AFF30080B0F1FF3F8146D9D1AB895C
:101860005B063FF538AF09981DB0BDE8F08F03ABBC
:1018700000932A46064B04A9404600F081F8EAE7A7
:1018800010210008162100081A210008000000009D
:10189000F51500082DE9F04791461F468A680B6947
:1018A000DDF820809342B8BF1346C9F8003091F8A4
:1018B000432006460C4612B10133C9F800302368B4
:1018C000990642BFD9F800300233C9F800302568C4
:1018D00015F0060507D104F1190AE368D9F80020CC
:1018E0009B1A9D4229DB94F843302268003318BFCD
:1018F000012392062ED404F1430239463046C047F4
:10190000013021D02368E568D9F8002003F00603F0
:10191000042B08BFAD1AA36822690CBF25EAE57540
:1019200000259342C4BF9B1AED184FF000091A34EA
:101930004D451BD10020BDE8F087012352463946B2
:101940003046C047013003D14FF0FF30BDE8F0878B
:101950000135C2E7E1185A1C302081F843002244C7
:1019600094F8451082F843100233C4E7012322465D
:1019700039463046C0470130E6D009F10109D7E7C2
:101980002DE9F04317460A7E85B06E2A9846064632
:101990000C460C9B01F1430E00F0BC801AD8632A60
:1019A0002ED00AD8002A00F0C880582A00F08A8079
:1019B00004F1420584F842202AE0642A01D0692A11
:1019C000F6D121681A6811F0800F23D0111D19601B
:1019D000136827E0732A00F0B48008D86F2A2AD051
:1019E000702AE5D10A6842F020020A6003E0752AF5
:1019F00021D0782ADCD1782284F845206E4964E031
:101A00001A6801F14205111D1960136884F842300B
:101A10000123A3E011F0400F02F104011960D7D0B7
:101A2000B2F90030002B03DA2D225B4284F8432008
:101A300062490A2217E02068196810F0800F03D06D
:101A4000081D18600B6806E010F0400F01F104005B
:101A50001860F7D00B8859496F2A14BF0A22082250
:101A6000002084F843006568A560002DC0F29C80CA
:101A7000206820F004002060002B3FD1002D40F0B2
:101A800095807546082A0BD12368DA0708D52369A3
:101A900062689A42DEBF302305F8013C05F1FF354C
:101AA000AEEB05032361CDF800803B4603AA214637
:101AB0003046FFF7EFFE013055D14FF0FF3005B053
:101AC000BDE8F08381F845203C492268186812F08F
:101AD000800F00F104051D6001D0036802E0550687
:101AE000FBD50388D00744BF42F0200222601BB917
:101AF000226822F0200222601022B1E77546B3FB73
:101B0000F2F002FB1033CB5C05F8013D03460028E0
:101B1000F5D1B7E708681A68496910F0800F04D05A
:101B2000101D18601368196007E010F0400F02F1F3
:101B3000040018601368F6D01980002323617546ED
:101B4000B1E71A68111D19601568626800212846FE
:101B500000F036F808B1401B606063682361002321
:101B600084F843309FE723692A4639463046C04708
:101B70000130A2D023689B0707D5002504F119097D
:101B8000E368039A9B1A9D4205DBE068039B984239
:101B9000B8BF184693E701234A4639463046C04746
:101BA00001308AD00135EBE7002BA7D10B7884F800
:101BB000423004F1420565E7322100082121000886
:101BC00001F0FF01102A2BDB10F0070F08D010F8EE
:101BD000013B013A8B422DD010F0070F42B3F6D1F2
:101BE000F0B441EA012141EA014122F007047FF00B
:101BF00000070023F0E80256083C85EA010586EA62
:101C0000010685FA47F5A3FA87F586FA47F6A5FA9D
:101C100087F68EB9EED1F0BC01F0FF0102F00702A9
:101C200032B110F8013B013A83EA010313B1F8D154
:101C30000020704701387047002D06BF3546033835
:101C4000073815F0010F07D1013015F4807F02BF6E
:101C5000013015F4C03F0130F0BC0138704700BFBF
:101C600010B5431E0A44914200D110BD11F8014B3A
:101C700003F8014FF7E7884210B501EB020303D8E0
:101C8000421E99420CD110BD9842F9D28118D21A45
:101C9000D34200D110BD13F8014D01F8014DF7E713
:101CA00011F8014B02F8014FEBE7000038B505468B
:101CB000002945D051F8043C0C1F002BB8BFE41894
:101CC00000F0D6F81F4A1368104633B963601460F9
:101CD0002846BDE8384000F0CCB8A3420CD92168B2
:101CE0006218934204BF1A685B68636004BF5218AD
:101CF00022600460ECE713465A680AB1A242FAD99E
:101D000019685818A0420BD1206801445818824223
:101D10001960DDD1106852685A6001441960D7E734
:101D200002D90C232B60D3E7206821188A4204BF14
:101D300011685268626004BF091821605C60C7E7DF
:101D400038BD00BF0401002070B5CD1C25F003058F
:101D500008350C2D38BF0C25002D064601DBA942A5
:101D600003D90C233360002070BD00F081F8234AB2
:101D70001468214691B9224C23681BB9304600F003
:101D800067F820602946304600F062F8431C26D1EF
:101D90000C233360304600F06CF8E4E70B685B1B03
:101DA0001AD40B2B0FD90B60CD50CC18304600F055
:101DB00060F804F10B00231D20F00700C31A1BD0AC
:101DC0005A42E25070BD8C420DBF63684B6863603D
:101DD000136018BF0C46E9E70C464968CAE7C41C03
:101DE00024F00304A04205D0211A304600F030F858
:101DF0000130CDD02560D9E770BD00BF04010020BF
:101E000008010020F8B5074614460E4621B91146D0
:101E1000BDE8F840FFF798BF22B9FFF747FF254616
:101E20002846F8BD00F026F884420FD921463846EE
:101E3000FFF78AFF05460028F2D031462246FFF719
:101E40000FFF31463846FFF731FFE9E73546E7E750
:101E500038B5064C0023054608462360FFF7D0F846
:101E6000431C02D1236803B12B6038BD1001002050
:101E70007047704751F8040C0028A0F10400BCBF63
:101E80000B58C018704700002E2E2F73797374659D
:101E90006D2F7372632F73746D333266342D6861E6
:101EA0006C2F73746D3332663478785F68616C5F61
:101EB000636F727465782E63000000002E2E2F73FE
:101EC000797374656D2F7372632F73746D3332661B
:101ED000342D68616C2F73746D3332663478785F9B
:101EE00068616C5F6770696F2E630000000000001E
:101EF0000102030401020304060708092E2E2F73B2
:101F0000797374656D2F7372632F73746D333266DA
:101F1000342D68616C2F73746D3332663478785F5A
:101F200068616C5F7263632E6300000053746163C9
:101F30006B206672616D653A0A0000002052302005
:101F40003D2020253038580A000000002052312062
:101F50003D2020253038580A000000002052322051
:101F60003D2020253038580A000000002052332040
:101F70003D2020253038580A000000002052313220
:101F8000203D20253038580A00000000204C522007
:101F90003D2020253038580A000000002050432002
:101FA0003D2020253038580A0000000020505352B0
:101FB000203D20253038580A000000004653522F9B
:101FC0004641523A0A0000002043465352203D2029
:101FD00020253038580A00002048465352203D2022
:101FE00020253038580A00002044465352203D2016
:101FF00020253038580A00002041465352203D2009
:1020000020253038580A0000204D4D464152203DD1
:1020100020253038580A00002042464152203D20F9
:1020200020253038580A00004D6973630A0000000B
:10203000204C522F4558435F52455455524E3D2037
:10204000253038580A0000005B48617264466175AB
:102050006C745D0A000000005B4275734661756C2C
:10206000745D0A005B55736167654661756C745DEC
:102070000A00000048414C5F496E6974282900003D
:1020800053797374656D436C6F636B5F436F6E66FA
:1020900069672829000000004D585F4750494F5F8D
:1020A000496E697428290000627574746F6E5F61EF
:1020B0006E645F6C65642070726F6A6563740000A3
:1020C000627574746F6E20697320707265737365C6
:1020D000642C204C4544206973204F4E00000000C2
:1020E000627574746F6E2069732072656C656173BC
:1020F00065642C204C4544206973204F46460000FF
:1021000000000000000000000102030406070809A7
:10211000232D302B2000686C4C00656667454647D0
:102120000030313233343536373839414243444553
:1021300046003031323334353637383961626364C2
:03214000656600D1
:102144007856341280000020000000000024F400BF
:102154001400002000000000000000000000000047
:10216400000000000000000000000000000000006B
:10217400000000000000000000000000000000005B
:10218400000000000000000000000000000000004B
:10219400000000000000000000000000000000003B
:1021A400000000000000000000000000000000002B
:0821B40000000000325476988F
:040000050800019955
:00000001FF
